:04000000B0EF08F065
:08000800046ED8CF05F0E0CF33
:1000100006F00001E9CF0CF0EACF07F0E1CF08F0DD
:10002000E2CF09F0D9CF0AF0DACF0BF0F3CF12F01C
:10003000F4CF13F0FACF14F000C00EF001C00FF0AF
:1000400002C010F003C011F09DA02AEF00F09EB096
:10005000C7EF00F00EC000F00FC001F010C002F0BA
:1000600011C003F00CC0E9FF07C0EAFF078E08C00B
:10007000E1FF09C0E2FF0AC0D9FF0BC0DAFF12C0DE
:10008000F3FF13C0F4FF14C0FAFF045006C0E0FFF2
:1000900005C0D8FF1000F2CF0DF0F29EF76AB00F46
:1000A000F66E000EF7220900F5500DBEF28E12001A
:1000B000C0F9A4B0999282F880908883C6A1868EF8
:1000C000F2CF0DF0F29EF76ADA0FF66E000EF7220D
:1000D0000900F5500DBEF28E120000010204030566
:1000E00001022003070306060204030306060203B7
:1000F000030507030720200707060603030500067C
:100100000604030501010720200700060204030579
:10011000000602030305F2CF0DF0F29EF76A300FDE
:10012000F66E010EF7220900F5500DBEF28E120098
:10013000070F1F1F1F1F1F1F1F1F1F000000000092
:100140001C1E1F1F1F1F1F1F00000000001F1F1F5E
:100150001F1F1F1F1F1F0F071F1F1F1F1F1F1E1CDB
:100160001F1F1F0000001F1F1F1F1F1F1F1F1F1FFC
:10017000F2CF0DF0F29EF76A8A0FF66E010EF722AB
:100180000900F5500DBEF28E120080C094D4040117
:10019000C02B0B0ECF6EDC0ECE6E9E9000012AEFB0
:1001A00000F031206869656E20746869206C6364B2
:1001B00020323078342A2A200000322064616920FD
:1001C000686F63207375207068616D206B74000028
:1001D0003320626F20746869206E676869656D20DE
:1001E00076646B200000303132333435363738399D
:1001F0006162636465666768696A00004100202087
:1002000020202020202020202020202020202020EE
:1002100020420000202043002020202020202020F9
:100220002020202020202020204400006B686F61C7
:10023000206469656E202D206469656E20747520C8
:100240000000626D206469656E7475636F6E67206F
:100250006E676869657000006B686F61206469652E
:100260006E202D206469656E207475200000626D1B
:10027000206469656E7475636F6E67206E67686968
:10028000657000006B686F61206469656E202D20C9
:100290006469656E207475200000626D2064696574
:1002A0006E7475636F6E67206E67686965700000B5
:1002B000444F4E4720484F3A00002D00444F4E47D0
:1002C00020484F3A00002D002D00444F4E47204853
:1002D0004F3A00002D002D00444F4E4720484F3A22
:1002E00000002D002D00444F4E4720484F3A00009B
:1002F00047494120545249204341493A2000474947
:1003000041205452492044454D3A2000484159204B
:100310004E48414E205048494D00484159204E48D2
:10032000414E205048494D004F4E2000444945550C
:10033000204B4849454E2042555A5A455200425595
:100340005A5A45523A204F46462C2054473A2000EC
:1003500047494120545249204341493A20004749E6
:1003600041205452492044454D3A20004869656E69
:100370002074686920747261692074696D0048692D
:10038000656E2074686920747261692074696D00FB
:100390004869656E207468692033206B7920747514
:1003A00000004869656E207468692038206B7920E8
:1003B00074750000424945552054554F4E47204121
:1003C00050504C450000424945552054554F4E472A
:1003D000204150504C45000020002000200020000B
:1003E0006869656E2074686920736F2030206861C9
:1003F0006E67203300006869656E20746869207339
:100400006F203031323300002A2A64656D20747504
:1004100020736F2030302064656E2039392A2A001D
:100420002A2A44454D2053414E205048414D2A2A06
:10043000000064682D73757068616D206B742068AE
:10044000636D0000626F206D6F6E206469656E20C1
:1004500074750000636F6E67206E67686965700071
:10046000746875632068616E682076646B006465EB
:100470006D2073616E207068616D000064656D2091
:1004800073616E207068616D000064656D2073613A
:100490006E207068616D0000446F6E6720486F00C9
:1004A000476961793A005300506875743A0050000A
:1004B00047696F3A00004800444F4E4720484F3A82
:1004C00020003A003A0064656D2073616E20706808
:1004D000616D3A006C63643A2064656D2073616EEF
:1004E000207068616D3A000064656D3A00006C63CD
:1004F000643A2064656D2073616E207068616D3AA6
:1005000000006869656E20746869206E68696574AA
:1005100020646F004C4D3335413A20004C4D33354B
:10052000423A20004E4849455420444F204C4D3318
:1005300035413A2000004E4849455420444F204C54
:100540004D3335423A20000044454D2053414E2062
:100550005048414D3A2000004C4D3335413A20007F
:100560004C4D3335423A200044454D2053414E20F6
:100570005048414D3A2000004B433A2000004E685D
:1005800069657420646F203A20200000636C6F63FB
:100590006B3A0000202000002020000020200000F6
:1005A000202000002020000020200000202000004B
:1005B000202000002020000020200000202000003B
:1005C000202000002020202020202020202020206B
:1005D000202020202020202000002020202020205B
:1005E000202020202020202020202020202000004B
:1005F00021902192236A226A176A1A6A196A1C6A70
:100600001B6A206A1F6A1E6A1D6A186A2BEF03F0B4
:10061000000E956E956A8C682468256895928C9278
:1006200095908C901F0E926E000E966E3C0E936EFF
:10063000276A266AC050C00B0209C06EC08EC280F5
:10064000C150C00B0C09C16E080E016EC250C30B25
:100650000110C26ECDD76EEF09F0A80ED56ED76A25
:10066000D66A70EF09F0B50ECD6E0B0ECF6EDC0EB4
:10067000CE6EC00EF2129D8072EF09F00501A86BDC
:10068000A85107080EE3A7BF02D08D9401D08D8436
:10069000969496908D9096908D80D890A737A82BA1
:1006A000EFD700011200956A8C6A24B802D08C98AA
:1006B00001D08C88959824BC02D08C9C01D08C8C65
:1006C000959C24B402D08C9401D08C8495949592FE
:1006D0008C8212003CC0A7F5D1DF3BC0A7F5CEDF6E
:1006E0003AC0A7F5CBDF39C0A7F5C8DF2494DBDF1C
:1006F00095968C8695968C9695928C9289EF03F0C0
:100700000501A5C53AF03A1EA6C539F0391E00010B
:10071000E1D71200958195C0A5F5A4C5A6F5F0DF37
:10072000959195C0A5F5A4C5A6F5EADF12009595AB
:10073000A3C5A4F5EFDF1200050EEA6E990EE96E6F
:10074000EF500DE0060E016E006A002EFED7012E5E
:10075000FBD77B0E006E002EFED7EF2EF3D7D3EF24
:1007600003F09591959395859597380E0501A36FA4
:100770000001DDDF420E006E002EFED700000C0EE1
:100780000501A36F0001D3DF420E006E002EFED7DD
:100790000000010E0501A36F0001C9DF020E050173
:1007A000996F0001C9D7060E0501A36F0001BFDFD5
:1007B000420E006E002EFED7000074EF09F0030E0B
:1007C00005019B5F0AE3050EEA6E9B0EE96EEF5092
:1007D00004E001D000D0EF2EFDD700011200929A64
:1007E000929A899A020E05019A6FF90E9B6F000189
:1007F000E6DF05019A2FF9D7928A070E006E002EC8
:10080000FED700D0000080BA03D0000E016E12D0D7
:100810006B0E006E002EFED700D00000999180AACA
:100820009981F00E9B6F0001CADF000E050199B19E
:10083000010E016E00011200929A929A899A100E8E
:10084000006E002EFED7000005019C530EE0929A28
:10085000929A898A100E006E002EFED7000080BA90
:1008600003D0000E016E1FD00DD0929A929A899AF1
:10087000100E006E002EFED7000080AA03D0000EDE
:10088000016E11D0520E006E002EFED700D0000077
:10089000929A929A898A520E006E002EFED700D04C
:1008A0000000010E016E000165EF04F0010E05016C
:1008B0009A6F9A51080811E3D8909933000ED8B076
:1008C000010E9B6F9C6F0001B7D7015203E1000E30
:1008D000016E06D005019A2BECD7010E016E0001C6
:1008E00012007DDFCC0E0501996F0001DFDF4E0E97
:1008F0000501996F0001DADF0501996B0001D6DF70
:100900000501996B0001D2DF1F0E0501996F0001EF
:10091000CDDF65DFCC0E0501996F0001C7DF480E02
:100920000501996F0001C2DF76EF09F0C050C00BDE
:100930000209C06EC08EC280C150C00B0D09C16ECD
:1009400078EF09F0080E016E00008A929392000081
:1009500005019A378A90D8B09380D8A0939093825B
:1009600081A2FED7012E01D002D00001EDD70000F8
:100970008A9293920000938000000000938281A2EB
:10098000FED7016A000081B001808A9293928A901A
:100990009390000112009380050E006E002EFED78A
:1009A0009382060E006E002EFED78A909390050E5D
:1009B000006E002EFED78A929392900E05019A6FD8
:1009C0000001C0DF400E05019A6F0001BBDF99C531
:1009D0009AF5B8DF93900000938281A2FED7050EAE
:1009E000006E002EFED700D000009380050E006E32
:1009F000002EFED77EEF09F09585A0C5A4F58ADE0E
:100A00001200956A8C6A25BC02D08C9C01D08C8C1B
:100A1000959C25B802D08C9801D08C88959825B4E7
:100A200002D08C9401D08C84959495908C8025EF85
:100A300005F026C099F527C09AF59AC5A7F51EDEE0
:100A400099C5A7F51BDE2594DCD795968C869596DF
:100A50008C9695908C902FEF05F0268AEAD79EEF22
:100A600009F005019A519B19800B9D6F9AAF02D036
:100A70009A1F9A2B9BAF02D09B1F9B2B9B51016A05
:100A80009A5D03E29AC500F00CD0006A080E9C6FD4
:100A90009A3700369B51005CD8B0006E01369C2F0F
:100AA000F7D79DAF02D0011E012A000112009EC59A
:100AB000A7F5E4DD9DC5A7F5E1DD9CC5A7F5DEDD65
:100AC0009BC5A7F5DBDD249CEEDD959E8C9E959E57
:100AD0008C8E95928C9297EF05F0BFC49AF50A0E12
:100AE00005019B6F0001BDDF036A0150F2CF99F54C
:100AF000F29E4BEC00F0050199BFF28E996FBFC4D6
:100B00009AF50A0E9B6F0001ACDF036A0050F2CF2A
:100B10009AF5F29E4BEC00F005019ABFF28E9A6FA7
:100B20009B6999C59CF59D6F9E690001C0D73BEFFD
:100B300008F005019A51016A995D03E299C500F038
:100B40000CD0006A080E9B6F993700369A51005CF2
:100B5000D8B0006E01369B2FF7D700011200036A50
:100B60000501A051F2CFA2F5F29E0001B8EC00F011
:100B70000501A2BFF28EA125A26FA36F0001D7DDF0
:100B80001200006A016A05019F51D890A0B10026A9
:100B900000320132A0B3002600320132A0B5002697
:100BA00000320132A0B7002600320132A0B900267F
:100BB00000320132A0BB002600320132A0BD002667
:100BC00000320132A0BF002600320132000107EFDF
:100BD00006F09CC5A0F59DC5A1F5C1DF05019E6B82
:100BE0009EBF03D09E5105082DE39E51030809E1E5
:100BF000010E9C259F6FA06F9DC5A1F50001AFDF81
:100C000005019BC59FF5060EA06F0001BAD70150E4
:100C10000501A06B9F6F036A9E519F25016EA05135
:100C200003220150F2CF9FF5F29E000160EC00F02C
:100C300005019FBFF28E9F6FA06F0001DDDE0501F1
:100C40009E2BCED7000112000900F5520CE0F6CF22
:100C500099F5F7CF9AF5F5CFA0F5CEDE99C5F6FF59
:100C60009AC5F7FFF1D71200016A026A006A036AA7
:100C700005019C5102E19B5118E0100E9D6FD89028
:100C800099379A37003603369C51035C02E19B5139
:100C9000005C07E39B51005ED8A003069C51035EF5
:100CA000D880013602369D2FEAD700011200A6C473
:100CB00099F50A0E05019A6F00013BDF01C099F515
:100CC00001C09BF5020E05019C6F9D6B000181DF49
:100CD000A6C499F50A0E05019A6F00012ADF00C02B
:100CE00099F500C09BF5020E05019C6F030E9D6FE8
:100CF00000016FDF050198534AE1A06BA16B000171
:100D00002EDFC40EF66E050EF76E9EDF010E050196
:100D1000A06FA16B000123DFDA0EF66E050EF76EF1
:100D200093DF0501A06B120EA16F000118DF73C5E0
:100D30009AF572C599F505019C6B0A0E9B6F00012F
:100D400093DF02C09AF501C099F5300E050199278D
:100D5000000E9A2399C5A0F500014EDE73C59AF5E1
:100D600072C599F505019C6B0A0E9B6F00017CDF33
:100D700000C099F5050103C09AF5300E9927000EC1
:100D80009A2399C5A0F5000137DE2ED00501982DD4
:100D90002CD073C59AF572C599F59C6B0A0E9B6FA2
:100DA000000162DF02C09AF501C099F501C09BF510
:100DB00005019C6B0E0E9D6F00010BDF73C59AF54C
:100DC00072C599F505019C6B0A0E9B6F00014CDF03
:100DD00000C099F5050103C09AF500C09BF59C6B16
:100DE000110E9D6F0001F5DE0501000112008E0E4F
:100DF000006E9AC501F099C502F0036A015209E13B
:100E000002C001F0026A080E005E015202E1006AAF
:100E100008D0D89001BE04D0023601360006F9D7BA
:100E2000019E03EF08F005019951D8B4A5D0A56F34
:100E30009D51D8B4A1D0A55F05E37F0EA527D8B0FA
:100E40009BD006D0810EA55FD8A096D0D8B494D000
:100E5000A5C500F0016A026A036AA46B9AC5A3F5EE
:100E6000A38F9BC5A2F59CC5A1F5190EA56FA05136
:100E7000A15F0DE2010EA25F0AE2A35F08E2A45F98
:100E800006E2A42BA32BA22BA051A12728D09F516F
:100E9000A25F12E2010EA35F0FE2A45F0DE2A42B9A
:100EA000A32B9F51A227A051A12719E3A22B17E141
:100EB000A32B15E1A42B13D09E518009A35F0EE252
:100EC000010EA45F0BE2A42B9E518009A3279F5122
:100ED000A227E9E3A32BE7E1A42BE5D70380A52F05
:100EE00001D00BD0D890A137A237A337A437D89020
:100EF000033602360136A637BAD7A6A106D0D89057
:100F0000013202320332A63302D0000635E0A6BF1A
:100F10001ED0D890A137A237A337A437A051A15F24
:100F200007E2010EA25F04E2A35F02E2A45F1AE3FC
:100F30009F51A25F05E2010EA35F02E2A45F12E3EC
:100F40009E518009A35F03E2010EA45F0BE3032A15
:100F500009E1022A07E1012A05E1002A0DE0013238
:100F6000023203329AC5A5F59E51A51BA5AF02D04A
:100F7000018E06D0019E04D0006A016A026A036AEB
:100F8000000116EF08F08E0E006E05019951005E0B
:100F90009AC502F09BC501F0028E005209E0D8907C
:100FA000025202E1015204E002320132002EF7D770
:100FB0009AAF05D0011E021E012AD8B4022A0001F0
:100FC0001FEF08F0000E016EC250C30B0110C26E7D
:100FD0000501736B726B706B7051C7080EE3C282B0
:100FE000C2B2FED7C3507227C4507323A60E006E40
:100FF000002EFED70000702BEFD773C59AF572C58F
:1010000099F50001F4D603C09CF502C09BF501C020
:101010009AF500C099F5AA0E0501A06FF10E9F6F19
:10102000020E9E6F800E9D6F0001FDD603C09CF5E1
:1010300002C09BF501C09AF500C099F5A4D702C083
:1010400073F501C072F573C59AF572C599F505017E
:101050009C6BC80E9B6F000107DE02C073F501C0D8
:1010600072F596EF08F00401C0BF03D0C051090823
:1010700060E3000132D5D6500401A66FA751A65DEA
:1010800046E0CC5320E1A6C4A7F4000110DE320EE6
:1010900005019627000E972397C502F096C501F02B
:1010A0000232013202320132023201C0BEFF02328C
:1010B0000230300B006EBD50CF0B0010BD6EA6C4C9
:1010C00095F524D00401CC2D22D0140ED880A6573B
:1010D000A6C4A7F40001EBDD320E0501965F000EF9
:1010E000975B97C502F096C501F0023201320232D9
:1010F0000132023201C0BEFF02320230300B006EFC
:10110000BD50CF0B0010BD6EA6C495F50401A651CD
:10111000140805E2D76A010ED66ECC6F05D0A6532F
:1011200003E1D76AD66ACC6B00014CD7C0DD15D07D
:1011300004010A0EC05FBF2BBFBF03D0BF511D0803
:1011400004E30501986B04D00401010E0501986FBA
:101150000401BF513C0801E1BF6B0001A7EF09F09A
:10116000F86AD09E078E21902192236A226A386AFB
:10117000396A3A6A3B6A3C6A406A3F6A3E6A010ED3
:101180003D6E800E446E436A426A416A486A476A0D
:10119000466A456A4C6E4B6A4E6A010E4D6E506A45
:1011A0004F6A800E546E536A566A010E556E586A25
:1011B000576A5A6A596A5B6A200E5C6E5D6A010E54
:1011C0005E6E100E5F6E606B656B646B636B010E21
:1011D000626F696B686B676B666F6D696C696B6971
:1011E000FE0E6A6F800E716F706B6F6B6E6B756F3A
:1011F000746B736B726B7F0E796F78697769766940
:10120000010E7A6F7B6F7E6B8D6B906B8F6B219471
:1012100021962198219A936B946B0401A56FAC6B76
:10122000AD6BAE6BBD6BBE6BBF6BC06BC16BCC6B84
:10123000640E0501716F736B726B756B746B776BFA
:10124000230E766F219C846B866B856B886B876B16
:101250008A6B070E896F8C6B8B6B8D6B219E9491C3
:10126000986BC150C00B0F09C16E070EB46E14D03D
:10127000084030FF0C00811D171B0F1D15171303AD
:101280000B090D0C44AF7F0804C2C0F9A4B09992B9
:1012900082F8A044CF200000000EF86E120EF76E08
:1012A000700EF66E0900F550006E000A13E009009A
:1012B000F550016EE8BE05D00F0BEA6E0900F5CFC0
:1012C000E9FF01BC090001AC0900F5CFEEFF004EBB
:1012D000E9D7F9D7F86A000108EF03F02DEF03F022
:1012E00033EF03F0B1EF03F071EF04F096EF04F089
:1012F000FA0E0501996F0001CBEF04F0050E8E6F19
:101300002186400E0501A36F000197EC03F0166AD9
:1013100016503F0811E3036A1650F2CF99F5F29E7A
:101320008BEC00F0050199BFF28E996FA06F000160
:10133000FCEC04F0162AECD72DEF05F094928B927A
:1013400094948B940C0EBD6EB76AB66A8CD6FED799
:02135000030098
:020000040030CA
:0E00000027CC3E1E0087A1000FC00FE00F406E
:00000001FF
;PIC18F4550
;CRC=EC89  CREATED="09-Sep-20 11:25"
